:020000000000FE
:020001000003FA
:020002000006F6
:020003000009F2
:02000400000CEE
:02000500000FEA
:020006000012E6
:020007000015E2
:020008000018DE
:02000900001BDA
:02000A00001ED6
:02000B000021D2
:02000C000024CE
:02000D000027CA
:02000E00002AC6
:02000F00002DC2
:020010000030BE
:020011000033BA
:020012000036B6
:020013000039B2
:02001400003CAE
:02001500003FAA
:020016000042A6
:020017000045A2
:0200180000489E
:02001900004B9A
:02001A00004E96
:02001B00005192
:02001C0000548E
:02001D0000578A
:02001E00005A86
:02001F00005D82
:0200200000607E
:0200210000637A
:02002200006676
:02002300006972
:02002400006C6E
:02002500006F6A
:02002600007266
:02002700007562
:0200280000785E
:02002900007B5A
:02002A00007E56
:02002B00008152
:02002C0000844E
:02002D0000874A
:02002E00008A46
:02002F00008D42
:0200300000903E
:0200310000933A
:02003200009636
:02003300009932
:02003400009C2E
:02003500009F2A
:0200360000A226
:0200370000A522
:0200380000A81E
:0200390000AB1A
:02003A0000AE16
:02003B0000B112
:02003C0000B40E
:02003D0000B70A
:02003E0000BA06
:02003F0000BD02
:0200400000C0FE
:0200410000C3FA
:0200420000C6F6
:0200430000C9F2
:0200440000CCEE
:0200450000CFEA
:0200460000D2E6
:0200470000D5E2
:0200480000D8DE
:0200490000DBDA
:02004A0000DED6
:02004B0000E1D2
:02004C0000E4CE
:02004D0000E7CA
:02004E0000EAC6
:02004F0000EDC2
:0200500000F0BE
:0200510000F3BA
:0200520000F6B6
:0200530000F9B2
:0200540000FCAE
:0200550000FFAA
:020056000102A5
:020057000105A1
:0200580001089D
:02005900010B99
:02005A00010E95
:02005B00011191
:02005C0001148D
:02005D00011789
:02005E00011A85
:02005F00011D81
:0200600001207D
:02006100012379
:02006200012675
:02006300012971
:02006400012C6D
:02006500012F69
:02006600013265
:02006700013561
:0200680001385D
:02006900013B59
:02006A00013E55
:02006B00014151
:02006C0001444D
:02006D00014749
:02006E00014A45
:02006F00014D41
:0200700001503D
:02007100015339
:02007200015635
:02007300015931
:02007400015C2D
:02007500015F29
:02007600016225
:02007700016521
:0200780001681D
:02007900016B19
:02007A00016E15
:02007B00017111
:02007C0001740D
:02007D00017709
:02007E00017A05
:02007F00017D01
:020080000180FD
:020081000183F9
:020082000186F5
:020083000189F1
:02008400018CED
:02008500018FE9
:020086000192E5
:020087000195E1
:020088000198DD
:02008900019BD9
:02008A00019ED5
:02008B0001A1D1
:02008C0001A4CD
:02008D0001A7C9
:02008E0001AAC5
:02008F0001ADC1
:0200900001B0BD
:0200910001B3B9
:0200920001B6B5
:0200930001B9B1
:0200940001BCAD
:0200950001BFA9
:0200960001C2A5
:0200970001C5A1
:0200980001C89D
:0200990001CB99
:02009A0001CE95
:02009B0001D191
:02009C0001D48D
:02009D0001D789
:02009E0001DA85
:02009F0001DD81
:0200A00001E07D
:0200A10001E379
:0200A20001E675
:0200A30001E971
:0200A40001EC6D
:0200A50001EF69
:0200A60001F265
:0200A70001F561
:0200A80001F85D
:0200A90001FB59
:0200AA0001FE55
:0200AB00000152
:0200AC0000044E
:0200AD0000074A
:0200AE00000A46
:0200AF00000D42
:0200B00000103E
:0200B10000133A
:0200B200001636
:0200B300001932
:0200B400001C2E
:0200B500001F2A
:0200B600002226
:0200B700002522
:0200B80000281E
:0200B900002B1A
:0200BA00002E16
:0200BB00003112
:0200BC0000340E
:0200BD0000370A
:0200BE00003A06
:0200BF00003D02
:0200C0000040FE
:0200C1000043FA
:0200C2000046F6
:0200C3000049F2
:0200C400004CEE
:0200C500004FEA
:0200C6000052E6
:0200C7000055E2
:0200C8000058DE
:0200C900005BDA
:0200CA00005ED6
:0200CB000061D2
:0200CC000064CE
:0200CD000067CA
:0200CE00006AC6
:0200CF00006DC2
:0200D0000070BE
:0200D1000073BA
:0200D2000076B6
:0200D3000079B2
:0200D400007CAE
:0200D500007FAA
:0200D6000082A6
:0200D7000085A2
:0200D80000889E
:0200D900008B9A
:0200DA00008E96
:0200DB00009192
:0200DC0000948E
:0200DD0000978A
:0200DE00009A86
:0200DF00009D82
:0200E00000A07E
:0200E10000A37A
:0200E20000A676
:0200E30000A972
:0200E40000AC6E
:0200E50000AF6A
:0200E60000B266
:0200E70000B562
:0200E80000B85E
:0200E90000BB5A
:0200EA0000BE56
:0200EB0000C152
:0200EC0000C44E
:0200ED0000C74A
:0200EE0000CA46
:0200EF0000CD42
:0200F00000D03E
:0200F10000D33A
:0200F20000D636
:0200F30000D932
:0200F40000DC2E
:0200F50000DF2A
:0200F60000E226
:0200F70000E522
:0200F80000E81E
:0200F90000EB1A
:0200FA0000EE16
:0200FB0000F112
:0200FC0000F40E
:0200FD0000F70A
:0200FE0000FA06
:0200FF0000FD02
:020100000100FC
:020101000103F8
:020102000106F4
:020103000109F0
:02010400010CEC
:02010500010FE8
:020106000112E4
:020107000115E0
:020108000118DC
:02010900011BD8
:02010A00011ED4
:02010B000121D0
:02010C000124CC
:02010D000127C8
:02010E00012AC4
:02010F00012DC0
:020110000130BC
:020111000133B8
:020112000136B4
:020113000139B0
:02011400013CAC
:02011500013FA8
:020116000142A4
:020117000145A0
:0201180001489C
:02011900014B98
:02011A00014E94
:02011B00015190
:02011C0001548C
:02011D00015788
:02011E00015A84
:02011F00015D80
:0201200001607C
:02012100016378
:02012200016674
:02012300016970
:02012400016C6C
:02012500016F68
:02012600017264
:02012700017560
:0201280001785C
:02012900017B58
:02012A00017E54
:02012B00018150
:02012C0001844C
:02012D00018748
:02012E00018A44
:02012F00018D40
:0201300001903C
:02013100019338
:02013200019634
:02013300019930
:02013400019C2C
:02013500019F28
:0201360001A224
:0201370001A520
:0201380001A81C
:0201390001AB18
:02013A0001AE14
:02013B0001B110
:02013C0001B40C
:02013D0001B708
:02013E0001BA04
:02013F0001BD00
:0201400001C0FC
:0201410001C3F8
:0201420001C6F4
:0201430001C9F0
:0201440001CCEC
:0201450001CFE8
:0201460001D2E4
:0201470001D5E0
:0201480001D8DC
:0201490001DBD8
:02014A0001DED4
:02014B0001E1D0
:02014C0001E4CC
:02014D0001E7C8
:02014E0001EAC4
:02014F0001EDC0
:0201500001F0BC
:0201510001F3B8
:0201520001F6B4
:0201530001F9B0
:0201540001FCAC
:0201550001FFA8
:020156000002A5
:020157000005A1
:0201580000089D
:02015900000B99
:02015A00000E95
:02015B00001191
:02015C0000148D
:02015D00001789
:02015E00001A85
:02015F00001D81
:0201600000207D
:02016100002379
:02016200002675
:02016300002971
:02016400002C6D
:02016500002F69
:02016600003265
:02016700003561
:0201680000385D
:02016900003B59
:02016A00003E55
:02016B00004151
:02016C0000444D
:02016D00004749
:02016E00004A45
:02016F00004D41
:0201700000503D
:02017100005339
:02017200005635
:02017300005931
:02017400005C2D
:02017500005F29
:02017600006225
:02017700006521
:0201780000681D
:02017900006B19
:02017A00006E15
:02017B00007111
:02017C0000740D
:02017D00007709
:02017E00007A05
:02017F00007D01
:020180000080FD
:020181000083F9
:020182000086F5
:020183000089F1
:02018400008CED
:02018500008FE9
:020186000092E5
:020187000095E1
:020188000098DD
:02018900009BD9
:02018A00009ED5
:02018B0000A1D1
:02018C0000A4CD
:02018D0000A7C9
:02018E0000AAC5
:02018F0000ADC1
:0201900000B0BD
:0201910000B3B9
:0201920000B6B5
:0201930000B9B1
:0201940000BCAD
:0201950000BFA9
:0201960000C2A5
:0201970000C5A1
:0201980000C89D
:0201990000CB99
:02019A0000CE95
:02019B0000D191
:02019C0000D48D
:02019D0000D789
:02019E0000DA85
:02019F0000DD81
:0201A00000E07D
:0201A10000E379
:0201A20000E675
:0201A30000E971
:0201A40000EC6D
:0201A50000EF69
:0201A60000F265
:0201A70000F561
:0201A80000F85D
:0201A90000FB59
:0201AA0000FE55
:0201AB00010150
:0201AC0001044C
:0201AD00010748
:0201AE00010A44
:0201AF00010D40
:0201B00001103C
:0201B100011338
:0201B200011634
:0201B300011930
:0201B400011C2C
:0201B500011F28
:0201B600012224
:0201B700012520
:0201B80001281C
:0201B900012B18
:0201BA00012E14
:0201BB00013110
:0201BC0001340C
:0201BD00013708
:0201BE00013A04
:0201BF00013D00
:0201C0000140FC
:0201C1000143F8
:0201C2000146F4
:0201C3000149F0
:0201C400014CEC
:0201C500014FE8
:0201C6000152E4
:0201C7000155E0
:0201C8000158DC
:0201C900015BD8
:0201CA00015ED4
:0201CB000161D0
:0201CC000164CC
:0201CD000167C8
:0201CE00016AC4
:0201CF00016DC0
:0201D0000170BC
:0201D1000173B8
:0201D2000176B4
:0201D3000179B0
:0201D400017CAC
:0201D500017FA8
:0201D6000182A4
:0201D7000185A0
:0201D80001889C
:0201D900018B98
:0201DA00018E94
:0201DB00019190
:0201DC0001948C
:0201DD00019788
:0201DE00019A84
:0201DF00019D80
:0201E00001A07C
:0201E10001A378
:0201E20001A674
:0201E30001A970
:0201E40001AC6C
:0201E50001AF68
:0201E60001B264
:0201E70001B560
:0201E80001B85C
:0201E90001BB58
:0201EA0001BE54
:0201EB0001C150
:0201EC0001C44C
:0201ED0001C748
:0201EE0001CA44
:0201EF0001CD40
:0201F00001D03C
:0201F10001D338
:0201F20001D634
:0201F30001D930
:0201F40001DC2C
:0201F50001DF28
:0201F60001E224
:0201F70001E520
:0201F80001E81C
:0201F90001EB18
:0201FA0001EE14
:0201FB0001F110
:0201FC0001F40C
:0201FD0001F708
:0201FE0001FA04
:0201FF0001FD00
:00000001FF
